:020000040000FA
:100000000C9458000C9480000C9480000C94800098
:100010000C9480000C9480000C9480000C94800060
:100020000C9480000C9480000C9480000C94800050
:100030000C9480000C9480000C9480000C94800040
:100040000C9405050C9480000C9475050C944F05D8
:100050000C9480000C9480000C9480000C94800020
:100060000C94A7050C9480000000000025002800D7
:100070002B00040404040404040402020202020229
:10008000030303030303010204081020408001025C
:1000900004081020010204081020000000080002DB
:1000A0000100000304070000000000000000C60675
:1000B00011241FBECFEFD8E0DEBFCDBF12E0A0E01D
:1000C000B1E0E6EFF9E102C005900D92A237B10769
:1000D000D9F726E0A2E7B2E001C01D92A635B2072B
:1000E000E1F710E0C8E5D0E004C02197FE010E94CE
:1000F000F30CC735D107C9F70E949A0A0C94F90C82
:100100000C94000090E0FC01E656FF4F2491FC01A6
:10011000EA57FF4F3491FC01EE58FF4FE491EE2374
:10012000C9F0222339F0233001F1A8F4213019F16C
:10013000223029F1F0E0EE0FFF1FE859FF4FA591A3
:10014000B4918FB7F894EC91611126C030953E239D
:100150003C938FBF08952730A9F02830C9F0243090
:1001600049F7809180008F7D03C0809180008F7758
:1001700080938000DFCF84B58F7784BDDBCF84B5DB
:100180008F7DFBCF8091B0008F778093B000D2CF6E
:100190008091B0008F7DF9CF3E2BDACF3FB7F89436
:1001A00080913D0390913E03A0913F03B0914003A5
:1001B00026B5A89B05C02F3F19F00196A11DB11DC2
:1001C0003FBFBA2FA92F982F8827BC01CD01620FFE
:1001D000711D811D911D42E0660F771F881F991FB9
:1001E0004A95D1F708958F929F92AF92BF92CF9286
:1001F000DF92EF92FF924B015C010E94CE006B01F7
:100200007C010E94CE006C197D098E099F09683E11
:10021000734081059105A8F321E0821A9108A10895
:10022000B10888EEC80E83E0D81EE11CF11C8114D1
:100230009104A104B10429F7FF90EF90DF90CF90D3
:10024000BF90AF909F908F90089508950895AF92BA
:10025000BF92CF92DF92EF92FF920F931F93CF93B3
:10026000DF936C017B018B01040F151FEB015E0115
:10027000AE18BF08C017D10759F06991D601ED91AA
:10028000FC910190F081E02DC6010995892B79F749
:10029000C501DF91CF911F910F91FF90EF90DF90FB
:1002A000CF90BF90AF900895FC01538D448D252FC2
:1002B00030E0842F90E0821B930B541710F0CF9600
:1002C000089501970895FC01918D828D981761F032
:1002D000A28DAE0FBF2FB11D5D968C91928D9F5F49
:1002E0009F73928F90E008958FEF9FEF0895FC0128
:1002F000918D828D981731F0828DE80FF11D858DDB
:1003000090E008958FEF9FEF0895FC01918D228D6D
:10031000892F90E0805C9F4F821B91098F739927F2
:10032000089581E493E00E94850121E0892B09F47E
:1003300020E0822F089580E090E0892B29F00E9430
:10034000910181110C9400000895FC01A48DA80F67
:10035000B92FB11DA35ABF4F2C91848D90E0019607
:100360008F739927848FA689B7892C93A089B18927
:100370008C91837080648C93938D848D981306C0C8
:100380000288F389E02D80818F7D80830895EF922C
:10039000FF920F931F93CF93DF93EC0181E0888F3F
:1003A0009B8D8C8D98131AC0E889F989808185FF0F
:1003B00015C09FB7F894EE89FF896083E889F989B1
:1003C00080818370806480839FBF81E090E0DF91B3
:1003D000CF911F910F91FF90EF900895F62E0B8D06
:1003E00010E00F5F1F4F0F731127E02E8C8D8E11C1
:1003F0000CC00FB607FCFACFE889F989808185FF28
:10040000F5CFCE010E94A501F1CFEB8DEC0FFD2FB2
:10041000F11DE35AFF4FF0829FB7F8940B8FEA89E2
:10042000FB8980818062CFCFCF93DF93EC01888DF1
:100430008823B9F0AA89BB89E889F9898C9185FD5F
:1004400003C0808186FD0DC00FB607FCF7CF8C91ED
:1004500085FFF2CF808185FFEDCFCE010E94A501FF
:10046000E9CFDF91CF9108952091DA02260F33274B
:10047000331F21323105ECF42091FE02FC0190E0A3
:1004800080E0243069F082E00895A091DA022191A1
:10049000AC0146545D4FA40FB52FB11D2C930196AE
:1004A000861798F38091DA02680F6093DA0280E091
:1004B000089581E008951092FE0281E08093000388
:1004C0001092FF0261E082E10E94820061E083E11C
:1004D0000E948200E9EBF0E080818E7F8083808142
:1004E0008D7F808388E48093B80085E48093BC008E
:1004F0000895CF93DF9391E09093B9028823B9F0E8
:10050000C091B800D091BA008091BC008A7B8093E2
:10051000BC0060E082E10E94820060E083E10E9412
:1005200082000E945B02D093BA00C093B800DF91B2
:10053000CF9108950895E0912B0380912A03E81745
:1005400030F4F0E0EC56FD4F808190E008958FEF9D
:100550009FEF089590912B0380912A032FEF3FEF97
:10056000981748F4E92FF0E0EC56FD4F208130E079
:100570009F5F90932B03C901089580912A03909166
:100580002B03891B990B0895CF92DF92EF92FF9274
:100590000F931F93CF93DF937C01CB018A012091AE
:1005A0009302222389F0EB016B01C40ED51ECC15FA
:1005B000DD0569F06991D701ED91FC910190F08121
:1005C000E02DC7010995F3CF642F0E943402C801C2
:1005D000DF91CF911F910F91FF90EF90DF90CF901F
:1005E0000895CF93DF931F92CDB7DEB76983209133
:1005F00093022223F9F020912803203258F021E0C1
:1006000030E0FC013383228390E080E00F90DF91A3
:10061000CF91089580912903E82FF0E0ED58FD4F28
:10062000998190838F5F809329038093280381E0D1
:1006300090E0ECCF61E0CE0101960E943402F7CF4A
:10064000CF92DF92EF92FF920F931F93CF93DF939E
:10065000FC01C48121E020939302C09372021092A6
:100660002903109228038385682B8EED93E00E9466
:10067000F102D0912803D13208F092C00E94CE003E
:100680006B017C018091FE02811165C082E0809344
:10069000FE0281E0809300038FEF8093FD021092B1
:1006A0002203D0932103A3E7B2E0E1E0F3E080E08E
:1006B000D81385C01092230380912303CC0FC82B3D
:1006C000C09323038091FF02813009F07CC0109217
:1006D000FF020E94CE006B017C0180912303809376
:1006E000BB008091B5029091B602A091B702B09183
:1006F000B802892B8A2B8B2B99F00E94CE00009197
:10070000B5021091B6022091B7023091B8026C196F
:100710007D098E099F090617170728073907E0F199
:100720008091BC0083FDD9CF85EC8093BC000E94F2
:10073000CE006B017C018091FE02823009F445C03D
:100740008091FD028F3F61F18091FD02803241F185
:100750008091FD0225C08091B5029091B602A091D2
:10076000B702B091B802892B8A2B8B2B09F48ACF60
:100770000E94CE000091B5021091B6022091B702FE
:100780003091B8026C197D098E099F090617170769
:100790002807390708F076CF8091B4020E947902C9
:1007A000109229031092280310929302DF91CF91A7
:1007B0001F910F91FF90EF90DF90CF9008959D9142
:1007C00091938F5F75CF85EEB0CF8091B5029091F8
:1007D000B602A091B702B091B802892B8A2B8B2B5D
:1007E00009F4A9CF0E94CE000091B5021091B60283
:1007F0002091B7023091B8026C197D098E099F09CA
:10080000061717072807390708F095CFC5CF0895B1
:1008100090E080E008950F931F93CF938C01C62F33
:100820000E9420036C2F6460C8010E9420036C2F7B
:100830006B7FC8010E94200383EC90E00197F1F7E1
:10084000CF911F910F9108950F931F93CF93DF9333
:100850008C01D62FC42F607F642B0E940B0480E193
:10086000D89FB00111246C2BC801DF91CF911F914B
:100870000F910C940B04CF93DF93CDB7DEB728977D
:100880000FB6F894DEBF0FBECDBF98E0E0E0F1E018
:10089000DE01119601900D929A95E1F79091F20385
:1008A000981708F48FEF90E0880F991F21E030E04F
:1008B0002C0F3D1F820F931FFC016081606840E098
:1008C0008AEE93E028960FB6F894DEBF0FBECDBF38
:1008D000DF91CF910C94240441E00E94240481E034
:1008E00090E00895FB0101900020E9F73197AF01F6
:1008F000461B570BDC01ED91FC910280F381E02D4A
:1009000009948F929F92AF92BF92EF92FF920F93B2
:100910001F93CF93DF93CDB7DEB7A1970FB6F894AF
:10092000DEBF0FBECDBF7C01FA01CB0119A2223080
:1009300008F42AE08E010F5D1F4F822E912CB12CFE
:10094000A12CBF01A50194010E94D10CF901CA019B
:100950006A300CF5605DD8016E938D01232B242B3A
:10096000252B79F790E080E0109721F0BD01C701B9
:100970000E947204A1960FB6F894DEBF0FBECDBFE1
:10098000DF91CF911F910F91FF90EF90BF90AF90AB
:100990009F908F900895695CDECF85ED8093BC00B9
:1009A0008091B5029091B602A091B702B091B802C1
:1009B0000796A11DB11D23E0B695A795979587953C
:1009C0002A95D1F72091BC0024FD03C01092FE02AD
:1009D00008954091B5025091B6026091B7027091AE
:1009E000B802452B462B472B69F30097A105B105AB
:1009F00041F02AE22A95F1F700C00197A109B10957
:100A0000E1CF8091B4020C9479021F920F920FB63D
:100A10000F9211242F933F938F939F93AF93BF9384
:100A20008091390390913A03A0913B03B0913C032C
:100A30003091380323E0230F2D3758F50196A11D7F
:100A4000B11D209338038093390390933A03A09308
:100A50003B03B0933C0380913D0390913E03A091F2
:100A60003F03B09140030196A11DB11D80933D034A
:100A700090933E03A0933F03B0934003BF91AF9187
:100A80009F918F913F912F910F900FBE0F901F90CC
:100A9000189526E8230F0296A11DB11DD2CF1F92F3
:100AA0000F920FB60F9211242F933F934F935F93A2
:100AB0006F937F938F939F93AF93BF93EF93FF9326
:100AC00081E493E00E94A501FF91EF91BF91AF9166
:100AD0009F918F917F916F915F914F913F912F9156
:100AE0000F900FBE0F901F9018951F920F920FB688
:100AF0000F9211242F938F939F93EF93FF93E09185
:100B00005103F09152038081E0915703F091580313
:100B100082FD1BC0908180915A038F5F8F7320915B
:100B20005B03821741F0E0915A03F0E0EF5BFC4F6A
:100B3000958F80935A03FF91EF919F918F912F9101
:100B40000F900FBE0F901F9018958081F4CF1F92C9
:100B50000F920FB60F9211242F933F934F935F93F1
:100B60006F937F938F939F93AF93BF93EF93FF9375
:100B70008091B900887F803609F44AC0F0F5883248
:100B800009F4A7C018F5803109F49BC0B8F4882394
:100B900009F4F9C0883009F494C0FF91EF91BF9136
:100BA000AF919F918F917F916F915F914F913F9105
:100BB0002F910F900FBE0F901F901895883109F458
:100BC00088C0803251F78093FD0214C0803409F44C
:100BD0009DC040F48033B9F38833F9F68093FD0269
:100BE00085ECB0C0803509F485C0883509F496C01D
:100BF000883499F60E94CD04D0CF883909F48CC08E
:100C000038F5883729F050F4883611F0803729F606
:100C100083E08093FE021092FC0257C0883809F4EA
:100C20007BC0803919F0803809F0B7CF8091FC0281
:100C3000803208F071C0E091FC0281E08E0F809359
:100C4000FC028091BB00F0E0E452FD4F80833DC088
:100C5000803B39F0E0F4803A09F479C0883A09F031
:100C60009CCF84E08093FE021092DB021092DA02A5
:100C7000E0912603F091270309958091DA02811112
:100C80000FC081E08093DA021092BA0209C0803C62
:100C900009F4A6CF883C09F4A3CF883B09F07DCFA7
:100CA000E091DB0281E08E0F8093DB02F0E0E654FE
:100CB000FD4F80818093BB009091DB028091DA022E
:100CC00029C0809123038093BB0085EC8093BC00F6
:100CD00064CF9091220380912103981758F5E091F9
:100CE000220381E08E0F80932203F0E0EF5FFC4F40
:100CF0008081E9CFE091220381E08E0F809322036F
:100D00008091BB00F0E0EF5FFC4F80839091220365
:100D1000809121039817C8F285E8D8CFE09122038B
:100D200081E08E0F809322038091BB00F0E0EF5FA3
:100D3000FC4F80838091000381115CCF81E0809320
:100D4000FF0284EA8093BC001092FE0226CF85EC5D
:100D50008093BC001092FE028091FC02803230F43D
:100D6000E091FC02F0E0E452FD4F10826091FC0241
:100D700070E0E0912403F09125038CED92E0099559
:100D80001092FC020ACF1092FD0234CF2F923F92B4
:100D90004F925F926F927F928F929F92AF92BF928B
:100DA000CF92DF92EF92FF920F931F93CF93DF9337
:100DB000E1E4F3E01382128288EE93E0A0E0B0E079
:100DC00084839583A683B7832CE032E0318320832C
:100DD00025EC30E03587248724EC30E03787268700
:100DE00020EC30E0318B208B21EC30E0338B228BF8
:100DF00022EC30E0358B248B26EC30E0378B268BD1
:100E0000118E128E138E148EEEEDF3E01382128289
:100E100084839583A683B7838EE192E09183808358
:100E20002AEE33E0D90113961C921E92129780E3AA
:100E300092E011969C938E931D961C921E921C9785
:100E400084EF91E01F969C938E931E97CAEFD3E098
:100E500048E0FE01242E11922A94E9F782E0A82EA0
:100E600084E0B82E88E0E8E0F1E0D50101900D9231
:100E70008A95E1F79AE0892E94E0992E88E0E0E1E6
:100E8000F1E0D40101900D928A95E1F752E1652ECF
:100E900054E0752E88E0E8E1F1E0D30101900D9275
:100EA0008A95E1F76AE1462E64E0562E88E0E0E29A
:100EB000F1E0D20101900D928A95E1F788E0E8E235
:100EC000F1E0A2E2B4E001900D928A95E1F788E0AA
:100ED000E0E3F1E0AAE2B4E001900D928A95E1F737
:100EE00088E0E8E3F1E0A2E3B4E001900D928A9596
:100EF000E1F788E0E0E4F1E0AAE3B4E001900D92CC
:100F00008A95E1F788E0E8E4F1E0A2E4B4E001903A
:100F10000D928A95E1F788E0E0E5F1E0AAE4B4E01B
:100F200001900D928A95E1F788E0E8E5F1E0A2E50D
:100F3000B4E001900D928A95E1F788E0E0E6F1E0F7
:100F4000AAE5B4E001900D928A95E1F788E0E8E621
:100F5000F1E0A2E6B4E001900D928A95E1F77AE61D
:100F6000C72E74E0D72E88E0E0E7F1E0D6010190CB
:100F70000D928A95E1F7E2E7EE2EE4E0FE2E88E09E
:100F8000E8E7F1E0D70101900D928A95E1F788E05A
:100F9000E0E8F1E0AAE7B4E001900D928A95E1F76C
:100FA00088E0E8E8F1E0A2E8B4E001900D928A95CB
:100FB000E1F70AE814E088E0E0E9F1E0D801019007
:100FC0000D928A95E1F788E0E8E9F1E0A2E9B4E062
:100FD00001900D928A95E1F78AE994E0DC011D9277
:100FE0004A95E9F74FE14093A00448E0E0EAF1E0D8
:100FF000A2EAB4E001900D924A95E1F748E0E8EAF0
:10100000F1E0AAEAB4E001900D924A95E1F748E0D8
:10101000E0EBF1E0A2EBB4E001900D924A95E1F72C
:1010200048E0E8EBF1E0AAEBB4E001900D924A95BC
:10103000E1F748E0E0ECF1E0A2ECB4E001900D92C1
:101040004A95E1F748E0E8ECF1E0AAECB4E0019061
:101050000D924A95E1F748E0E0EDF1E0A2EDB4E051
:1010600001900D924A95E1F748E0E8EDF1E0AAED34
:10107000B4E001900D924A95E1F748E0E0EEF1E02E
:10108000A2EEB4E001900D924A95E1F748E0E8EE57
:10109000F1E0AAEEB4E001900D924A95E1F748E044
:1010A000E0EFF1E0A2EFB4E001900D924A95E1F794
:1010B00048E0E8EFF1E0AAEFB4E001900D924A9524
:1010C000E1F748E0E0E0F2E0A2E0B5E001900D9247
:1010D0004A95E1F7B0920B05A0920A05F0920D0532
:1010E000E0920C0590920F0580920E05709211050A
:1010F000609210054AE754E050931305409312059F
:101100005092150540921405E2E2F4E0F0931705C1
:10111000E0931605FAE22F2EF4E03F2E30921905E7
:101120002092180542E854E050931B0540931A059D
:1011300042E354E050931D0540931C0510931F0596
:1011400000931E05AAE3B4E0B0932105A093200507
:10115000E2E4F4E0F0932305E093220542E954E051
:101160005093250540932405AAE42A2EA4E03A2EA4
:10117000309227052092260542E554E05093290538
:1011800040932805AAE5B4E0B0932B05A0932A0567
:10119000E2E6F4E0F0932D05E0932C05D0922F05C4
:1011A000C0922E0542EC54E0509331054093300537
:1011B0004AEE54E050933305409332054AEC54E034
:1011C000509335054093340542EF54E05093370572
:1011D0004093360542ED54E050933905409338056D
:1011E0004AEF54E050933B0540933A054AED54E0F2
:1011F00050933D0540933C0542E055E050933F0538
:1012000040933E0542EA54E0509341054093400527
:10121000D0934305C0934205D0934505C093440540
:10122000D0934705C09346054AEA54E050934905D8
:101230004093480542EB54E050934B0540934A05D8
:10124000D0934D05C0934C05D0934F05C0934E05E8
:10125000D0935105C09350054AEB54E05093530589
:10126000409352059093550580935405D0935705AC
:10127000C093560582EE94E09093590580935805EB
:10128000EAE5F5E084E5DF011D928A95E9F788E05B
:1012900090E090937F0580937E05909383058093E3
:1012A000820541E050E0509385054093840590937A
:1012B000870580938605E4E1F0E0F0938905E093EB
:1012C0008805ADE0B0E0B0939305A093920564E08B
:1012D00070E07093950560939405B0939705A09383
:1012E00096050F2EF5E02F2E312CF02D309299051A
:1012F00020929805B0939B05A0939A05F0939D05C5
:10130000E0939C05A2E1B0E0B093A705A093A605E9
:10131000F093A905E093A805D093AF05C093AE055F
:10132000B092B105A092B005F092B305E092B2057B
:10133000D093B505C093B4059092B7058092B605D9
:10134000D093B905C093B805D093BB05C093BA0537
:101350007092BD056092BC055092BF054092BE05DB
:10136000D093C105C093C005D093C305C093C205F7
:10137000D093C505C093C405D093C705C093C605D7
:10138000D093C905C093C805D093CB05C093CA05B7
:10139000D093CD05C093CC05A2E2B4E0B093CF05C5
:1013A000A093CE05EAE2F4E0F093D105E093D005F6
:1013B000D093D305C093D205E2E32E2EE4E03E2E77
:1013C0003092D5052092D4051093D7050093D60509
:1013D000AAE3B4E0B093D905A093D805C2E4D4E061
:1013E000D093DB05C093DA05EAE4F4E0F093DD0581
:1013F000E093DC05F2E52F2EF4E03F2E3092DF057E
:101400002092DE05AAE5B4E0B093E105A093E005E3
:10141000C2E6D4E0D093E305C093E205D092E5059F
:10142000C092E405E6EEF5E0A0E7EF011992AA9577
:10143000E9F75093F3054093F205E3E1F0E0F09310
:10144000F505E093F4057093FB056093FA05A6E1BA
:10145000B0E0B093FD05A093FC057093FF05609389
:10146000FE056BE170E070930106609300069093B7
:101470000B0680930A0650930D0640930C0690933A
:101480000F0680930E0640E150E050931106409302
:101490001006909313068093120641E150E050939A
:1014A0001506409314069093170680931606F09342
:1014B0001906E093180690931B0680931A06A9E17B
:1014C000B0E0B0931D06A0931C0690931F06809376
:1014D0001E06AAE1B0E0B0932106A09320069093E7
:1014E000230680932206709325066093240650936A
:1014F0002F0640932E06F0933106E093300687E2E4
:10150000F901848380E1818782E082871386DF91FD
:10151000CF911F910F91FF90EF90DF90CF90BF90F0
:10152000AF909F908F907F906F905F904F903F9083
:101530002F900895789484B5826084BD84B58160CD
:1015400084BD85B5826085BD85B5816085BD80918E
:101550006E00816080936E00109281008091810006
:1015600082608093810080918100816080938100FE
:10157000809180008160809380008091B1008460C0
:101580008093B1008091B00081608093B000809121
:101590007A00846080937A0080917A0082608093E0
:1015A0007A0080917A00816080937A0080917A003D
:1015B000806880937A001092C100E0915103F0910D
:1015C000520382E08083E0914D03F0914E0310823C
:1015D000E0914F03F09150038FEC808310925903F8
:1015E000E0915503F091560386E08083E091530328
:1015F000F0915403808180618083E0915303F091E6
:101600005403808188608083E0915303F0915403F8
:10161000808180688083E0915303F091540380813E
:101620008F7D808310922B0310922A03109229033E
:10163000109228030E945B0285E291E090932703B9
:101640008093260386E291E0909325038093240300
:101650001092EF038091F403823018F098E0909399
:10166000EF038093F20362E370E080E090E00E9479
:10167000F3006091F5038AEE93E00E94200368EE88
:1016800073E080E090E00E94F30060E38AEE93E074
:101690000E940B04CBE4D6E4CE010197F1F760E39E
:1016A0008AEE93E00E940B042197F1F760E38AEE43
:1016B00093E00E940B0483E592E00197F1F760E26A
:1016C0008AEE93E00E940B046091EF03606240E0B9
:1016D0008AEE93E00E94240484E08093F00340E0CB
:1016E0006CE08AEE93E00E94240440E061E08AEE20
:1016F00093E00E942404CBE3DFE1CE010197F1F7F0
:1017000082E08093F10340E066E08AEE93E00E947D
:10171000240440E062E08AEE93E00E942404CE01BB
:101720000197F1F788E08093F50360E08AEE93E09B
:101730000E94200340E061E08AEE93E00E942404CE
:101740002197F1F768EE73E080E090E00E94F300EB
:1017500080E00E943B0468E372E08AEE93E00E941E
:10176000720468EE73E080E090E00E94F30069E4A8
:1017700072E081E493E00E94720468E572E081E423
:1017800093E00E9472048CE3C82ED12CE12CF12C42
:1017900090E6492E9AEE592E612C712CC0E0D0E0D3
:1017A0008FB7F8948090390390903A03A0903B0350
:1017B000B0903C038FBFC501B40120E83EEE46E384
:1017C00050E00E94D10C20933403309335034093B2
:1017D000360350933703C501B40128EE33E040E0EF
:1017E00050E00E94D10CCA01B901A70196010E94E4
:1017F000D10C60932C0370932D0380932E03909350
:101800002F03C501B401A30192010E94D10CCA01AA
:10181000B901A70196010E94D10C60933003709327
:10182000310380933203909333036BE572E081E4DC
:1018300093E00E947204409134035091350360910B
:101840003603709137032AE081E493E00E9481041B
:101850006EE672E081E493E00E94720440913003EE
:101860005091310360913203709133032AE081E497
:1018700093E00E9481046EE672E081E493E00E94AE
:10188000720440912C0350912D0360912E037091AE
:101890002F032AE081E493E00E94810468E572E06E
:1018A00081E493E00E94720468EE73E080E090E0CF
:1018B0000E94F30081E00E943B04809134039091E8
:1018C0003503A0913603B09137030A97A105B105FE
:1018D00030F460E772E08AEE93E00E947204409177
:1018E00034035091350360913603709137032AE039
:1018F0008AEE93E00E9481046EE672E08AEE93E045
:101900000E9472048091300390913103A0913203C0
:10191000B09133030A97A105B10530F460E772E096
:101920008AEE93E00E94720440913003509131039B
:1019300060913203709133032AE08AEE93E00E94B3
:1019400081046EE672E08AEE93E00E947204809158
:101950002C0390912D03A0912E03B0912F030A9791
:10196000A105B10530F460E772E08AEE93E00E94D1
:10197000720440912C0350912D0360912E037091BD
:101980002F032AE08AEE93E00E948104209709F455
:1019900007CF0E949101882309F402CF0E94000022
:1019A000FFCEA1E21A2EAA1BBB1BFD010DC0AA1F70
:1019B000BB1FEE1FFF1FA217B307E407F50720F0B8
:1019C000A21BB30BE40BF50B661F771F881F991F33
:1019D0001A9469F760957095809590959B01AC017C
:1019E000BD01CF010895EE0FFF1F0590F491E02D8A
:1019F0000994F894FFCF00004000140054001F0128
:101A00000101000000001010101F000000001F1056
:101A1000101F000000001F011F101F0000001F11F9
:101A2000111F000000000A0E0A0E0000000004044E
:101A30000A11000000000E1B111B0E0000001F0405
:101A40000A1100000000041F040A110000001F0119
:101A50000F01010000001F101F101F0000001F0ACF
:101A60000A1F00000000041F040A040000001F05F4
:101A70000505000000001F14141F00000000151FC2
:101A8000151F000000000A0A1515000000001F0ABB
:101A90001515000000000000000000041F000000F9
:101AA0000000000A1F000000000000001F040000EA
:101AB000000000001F0A0010101018101000001085
:101AC000101810181000000808081808080000086E
:101AD000081808180800001010101010100000144A
:101AE00014141C1414000014141C141C1400000AF8
:101AF0000A0A1A0A0A00000A0A1A0A1A0A00000048
:101B00000000C70127015401140285016301770118
:101B100000000000F102C40208049A02BD02AA02F9
:101B20009B02000000006C042701080407045469AC
:101B30006D652073696E6365207374617274005300
:101B40006574757020636F6D706C657465000D0A47
:101B50000054696D652073696E63652073746172EA
:081B6000743A20003A00300045
:107800000C94343C0C94513C0C94513C0C94513CE1
:107810000C94513C0C94513C0C94513C0C94513CB4
:107820000C94513C0C94513C0C94513C0C94513CA4
:107830000C94513C0C94513C0C94513C0C94513C94
:107840000C94513C0C94513C0C94513C0C94513C84
:107850000C94513C0C94513C0C94513C0C94513C74
:107860000C94513C0C94513C11241FBECFEFD8E036
:10787000DEBFCDBF11E0A0E0B1E0ECE9FFE702C060
:1078800005900D92A230B107D9F712E0A2E0B1E065
:1078900001C01D92AD30B107E1F70E942D3D0C945F
:1078A000CC3F0C94003C982F959595959595959582
:1078B000905D8F708A307CF0282F295A8091C0000B
:1078C00085FFFCCF9093C6008091C00085FFFCCF60
:1078D0002093C6000895282F205DF0CF982F809127
:1078E000C00085FFFCCF9093C6000895EF92FF92F1
:1078F0000F931F93EE24FF2487018091C00087FD22
:1079000017C00894E11CF11C011D111D81E4E8164B
:1079100082E4F8068FE0080780E0180770F3E09132
:107920000401F091050109958091C00087FFE9CF1E
:107930008091C6001F910F91FF90EF9008950E94D3
:10794000763C982F8091C00085FFFCCF9093C600B5
:1079500091362CF490330CF09053892F089597555D
:10796000892F08951F930E949F3C182F0E949F3CCF
:107970001295107F810F1F9108951F93182F882350
:1079800021F00E94763C1150E1F71F9108951F935A
:10799000182F0E94763C803249F0809103018F5F5E
:1079A000809303018530C1F01F9108958091C0003C
:1079B00085FFFCCF84E18093C6008091C00085FFE5
:1079C000FCCF1093C6008091C00085FFFCCF80E102
:1079D0008093C6001F910895E0910401F091050184
:1079E00009951F9108950E94763C803241F0809164
:1079F00003018F5F80930301853081F008958091AA
:107A0000C00085FFFCCF84E18093C6008091C00058
:107A100085FFFCCF80E18093C6000895E0910401CA
:107A2000F09105010995089540E951E08823A1F0FE
:107A30002D9A28EE33E0FA013197F1F721503040CA
:107A4000D1F72D9828EE33E0FA013197F1F7215064
:107A50003040D1F7815061F708953F924F925F9285
:107A60006F927F928F929F92AF92BF92CF92DF924E
:107A7000EF92FF920F931F93CF93DF93000080E16B
:107A80008093C4001092C50088E18093C10086E015
:107A90008093C2005098589A259A81E00E94143D24
:107AA00024E1F22E9EE1E92E85E9D82E0FE0C02ECA
:107AB00010E1B12EAA24A394B1E49B2EA6E58A2E50
:107AC000F2E57F2EE0E26E2E79E4572E63E5462E36
:107AD00050E5352E0E94763C8033B1F18133B9F107
:107AE000803409F46FC0813409F476C0823409F41B
:107AF00085C0853409F488C0803531F1823521F1A3
:107B0000813511F1853509F485C0863509F48DC0BC
:107B1000843609F496C0843709F403C1853709F423
:107B200072C1863709F466C0809103018F5F80932C
:107B30000301853079F6E0910401F0910501099582
:107B40000E94763C803351F60E94F33CC3CF0E94E2
:107B5000763C803249F78091C00085FFFCCFF092DF
:107B6000C6008091C00085FFFCCF9092C600809136
:107B7000C00085FFFCCF8092C6008091C00085FFC9
:107B8000FCCF7092C6008091C00085FFFCCF609250
:107B9000C6008091C00085FFFCCF5092C600809146
:107BA000C00085FFFCCF4092C6008091C00085FFD9
:107BB000FCCF3092C6008091C00085FFFCCFB09210
:107BC000C60088CF0E94763C863808F4BDCF0E945C
:107BD000763C0E94F33C7ECF0E94763C803809F4CC
:107BE0009CC0813809F40BC1823809F43CC1883942
:107BF00009F48FC080E00E94C73C6CCF84E10E94F2
:107C0000BD3C0E94F33C66CF85E00E94BD3C0E94D3
:107C1000F33C60CF0E94763C809306010E94763C44
:107C2000809307010E94F33C55CF0E94763C80333D
:107C300009F41DC183E00E94BD3C80E00E94C73C66
:107C400049CF0E94763C809309020E94763C809343
:107C5000080280910C028E7F80930C020E94763C79
:107C6000853409F415C18091080290910902892B8D
:107C700089F000E010E00E94763CF801E85FFE4FDA
:107C800080830F5F1F4F80910802909109020817AF
:107C9000190788F30E94763C803209F045CF809125
:107CA0000C0280FF01C16091060170910701660F0F
:107CB000771F7093070160930601A0910802B091AD
:107CC00009021097C9F0E8E0F1E09B01AD014E0F09
:107CD0005F1FF999FECF32BD21BD819180BDFA9A17
:107CE000F99A2F5F3F4FE417F50799F76A0F7B1F4B
:107CF00070930701609306018091C00085FFFCCF5F
:107D0000F092C6008091C00085FFFCCFB092C60003
:107D1000E1CE83E00E94C73CDDCE82E00E94C73CFA
:107D2000D9CE0E94763C809309020E94763C8093D3
:107D300008028091060190910701880F991F909386
:107D40000701809306010E94763C853409F4A6C0A1
:107D500080910C028E7F80930C020E94763C8032D0
:107D600009F0B8CE8091C00085FFFCCFF092C6002C
:107D7000609108027091090261157105B9F140E046
:107D800050E080910C02A82FA170B82FB27011C0E2
:107D9000BB2309F45CC0E0910601F0910701319624
:107DA000F0930701E09306014F5F5F4F46175707B7
:107DB000E8F4AA2369F3F999FECF209106013091E6
:107DC000070132BD21BDF89A90B58091C00085FFB2
:107DD000FCCF9093C6002F5F3F4F30930701209355
:107DE00006014F5F5F4F4617570718F38091C00099
:107DF00085FDE5CE8091C00085FFF8CFE0CE81E023
:107E00000E94C73C67CE0E94763C803209F08CCE3F
:107E10008091C00085FFFCCFF092C6008091C00029
:107E200085FFFCCFE092C6008091C00085FFFCCFAB
:107E3000D092C6008091C00085FFFCCFC092C600E2
:107E40008091C00085FFFCCFB092C60043CEE09188
:107E50000601F091070194918091C00085FFFCCF4D
:107E60009093C6009CCF80E10E94C73C33CE0E9415
:107E7000763C0E94763C182F0E94763C112309F430
:107E800083C0113009F484C08FE00E94C73C22CE29
:107E900080910C02816080930C02E5CE80910C02EF
:107EA000816080930C0259CF809107018823880F4D
:107EB000880B8A2180930B02809106019091070123
:107EC000880F991F90930701809306018091080203
:107ED00080FF09C080910802909109020196909359
:107EE000090280930802F894F999FECF1127E091D6
:107EF0000601F0910701C8E0D1E08091080290915D
:107F00000902103091F40091570001700130D9F34B
:107F100003E000935700E89500915700017001308D
:107F2000D9F301E100935700E89509901990009169
:107F3000570001700130D9F301E000935700E89534
:107F40001395103498F011270091570001700130FB
:107F5000D9F305E000935700E895009157000170B0
:107F60000130D9F301E100935700E895329602976A
:107F700009F0C7CF103011F00296E5CF112480919F
:107F8000C00085FFB9CEBCCE8EE10E94C73CA2CD19
:0E7F900085E90E94C73C9ECDF894FFCF80008B
:00000001FF
