:100000005BC0000074C0000072C0000070C000003F
:100010006EC000006CC000006AC0000068C0000034
:1000200066C0000064C0000062C0000060C0000044
:100030005EC000005CC000005AC0000058C0000054
:1000400000C1000054C0000052C0000050C00000B9
:100050004EC000004CC000004AC0000048C0000074
:1000600046C0000044C0000000000000240027003B
:100070002A0000000000250028002B0004040404CE
:100080000404040402020202020203030303030342
:10009000010204081020408001020408102001021F
:1000A00004081020000000080002010000030407FB
:1000B000000000000000000011241FBECFEFD8E0B8
:1000C000DEBFCDBF21E0A4E0B1E001C01D92A531AB
:1000D000B207E1F711E0A0E0B1E0E8ECF5E002C022
:1000E00005900D92A430B107D9F7F5D06BC288CF37
:1000F00090E0FC01EC55FF4F3491FC01E057FF4FBD
:100100002491FC01E458FF4FE491EE2309F43BC035
:10011000332339F1333091F038F43130A9F03230F3
:1001200001F584B58F7D12C0373091F03830A1F0E1
:100130003430B9F4809180008F7D03C080918000BD
:100140008F77809380000DC084B58F7784BD09C000
:100150008091B0008F7703C08091B0008F7D809335
:10016000B000F0E0EE0FFF1FEE58FF4FA591B491E5
:100170008FB7F894EC91611103C020952E2301C034
:100180002E2B2C938FBF08953FB7F89480911101C7
:1001900090911201A0911301B091140126B5A89B72
:1001A00005C02F3F19F00196A11DB11D3FBFBA2F09
:1001B000A92F982F8827820F911DA11DB11DBC0169
:1001C000CD0142E0660F771F881F991F4A95D1F72E
:1001D00008958F929F92AF92BF92CF92DF92EF924B
:1001E000FF926B017C01D0DF4B015C01C114D10493
:1001F000E104F104E9F0C8DFDC01CB0188199909B9
:10020000AA09BB09883E9340A105B10578F321E016
:10021000C21AD108E108F10888EE880E83E0981E22
:10022000A11CB11CC114D104E104F10421F7DECFFB
:10023000FF90EF90DF90CF90BF90AF909F908F9006
:1002400008951F920F920FB60F9211242F933F9390
:100250008F939F93AF93BF9380910D0190910E0167
:10026000A0910F01B091100130910C0123E0230FF8
:100270002D3720F40196A11DB11D05C026E8230FDE
:100280000296A11DB11D20930C0180930D01909346
:100290000E01A0930F01B093100180911101909174
:1002A0001201A0911301B09114010196A11DB11D7D
:1002B0008093110190931201A0931301B093140144
:1002C000BF91AF919F918F913F912F910F900FBE52
:1002D0000F901F901895789484B5826084BD84B582
:1002E000816084BD85B5826085BD85B5816085BD31
:1002F00080916E00816080936E00109281008091E9
:100300008100826080938100809181008160809370
:100310008100809180008160809380008091B10095
:1003200084608093B1008091B00081608093B000C0
:1003300080917A00846080937A0080917A00826054
:1003400080937A0080917A00816080937A00809116
:100350007A00806880937A001092C10080E48093D4
:100360007C0080917A00806480937A0080917A008A
:1003700086FDFCCF609178008091790070E0782B49
:10038000072E000C880B990B6115710581059105ED
:1003900009F0B2D0EDE9F0E02491E9E8F0E08491D1
:1003A000882399F090E0880F991FFC01E859FF4FCE
:1003B000A591B491FC01EE58FF4F859194918FB7B0
:1003C000F894EC91E22BEC938FBF88E7882E85E0C0
:1003D000982EA12CB12C9CEB492E92E0592E612C29
:1003E000712CC0E0D0E085D0A50194018ED0DC0155
:1003F000CB018C599F4FAF4FBF4F80930801909313
:100400000901A0930A01B0930B0173D0A3019201DB
:100410007CD06B017C0128ECC20ED11CE11CF11CCC
:10042000C0920401D0920501E0920601F09207010A
:1004300061E08DE05DDE60910801709109018091BD
:100440000A0190910B01C5DE60E08DE051DEC7012D
:10045000B601BFDE209709F4C6CF0E940000C3CFCB
:100460008F929F92AF92BF92CF92DF92EF92FF92C4
:10047000CF93DF93EC01688179818A819B8161153B
:1004800071058105910521F464E279ED8BE597E032
:100490002DE133EF41E050E038D049015A019B0192
:1004A000AC01A7EAB1E44DD06B017C01ACEEB4EF36
:1004B000A501940152D0DC01CB018C0D9D1DAE1D18
:1004C000BF1DB7FF03C00197A109B0488883998376
:1004D000AA83BB83BC01CD019F77DF91CF91FF90B1
:1004E000EF90DF90CF90BF90AF909F908F90089546
:1004F000B7CF80E091E0B4CF609300017093010129
:1005000080930201909303010895052E97FB16F442
:1005100000940FD057FD05D024D007FC02D046F43C
:1005200008C050954095309521953F4F4F4F5F4FF4
:10053000089590958095709561957F4F8F4F9F4F4F
:10054000089531D0A59F900DB49F900DA49F800D6C
:10055000911D11240895B7FFF4CFF3DF821B930B95
:100560000895A1E21A2EAA1BBB1BFD010DC0AA1FF4
:10057000BB1FEE1FFF1FA217B307E407F50720F00C
:10058000A21BB30BE40BF50B661F771F881F991F87
:100590001A9469F760957095809590959B01AC01D0
:1005A000BD01CF010895A29FB001B39FC001A39FD9
:1005B000700D811D1124911DB29F700D811D11249C
:0805C000911D0895F894FFCF8E
:0405C800010000002E
:00000001FF
